:020000040800F2
:1000000078E1002045010008799B01086559010845
:1000100071960108AD2700081D520308000000007A
:100020000000000000000000000000009DE9020840
:10003000D599000800000000C1C401081118030888
:100040005F0100085F0100085F0100085F01000810
:100050005F0100085F0100085F0100085F01000800
:1000600041DD00085F0100085F0100085F01000832
:100070005F0100085F0100085F0100085F010008E0
:100080005F0100085F0100085F0100085F010008D0
:10009000F14703085F0100085F01000879DD0008EF
:1000A0005F0100085F0100085F0100085F010008B0
:1000B00029190308E11A03085F0100085F0100081D
:1000C0005F0100085F0100085F0100085F01000890
:1000D0005F010008714003084141030831420308F1
:1000E0005F0100085F010008754503085F01000813
:1000F0005F0100085F0100085F0100085F01000860
:100100005F01000841DD02085F0100085F0100088F
:100110005F0100085F010008F11B0308D11C030800
:100120005F0100085F0100085F0100085F0100082F
:10013000DFF80CD000F0F0FA00480047157D030806
:1001400078E100200648804706480047FEE7FEE7C2
:10015000FEE7FEE7FEE7FEE7FEE7FEE7FEE7FEE777
:1001600099180308310100082DE9F05F05460020C9
:1001700092469B4688460646814640241BE0284618
:1001800041464746224600F0C6F853465A46C01A32
:10019000914110D311461846224600F0ADF82D1AB1
:1001A00067EB01084F4622460120002100F0A4F829
:1001B00017EB00094E41201EA4F10104DFDC484684
:1001C00031462A464346BDE8F09F40EA01039B07BB
:1001D00003D009E008C9121F08C0042AFAD203E0BC
:1001E00011F8013B00F8013B521EF9D27047D2B220
:1001F00001E000F8012B491EFBD270470022F6E710
:1002000010B513460A4604461946FFF7F0FF20468C
:1002100010BD10B5044604E00B7800F8013B03B1B3
:10022000491C521EF8D2204610BDCAB2401E10F81A
:10023000011F8A4202D00029F9D100207047421CD8
:1002400010F8011B0029FBD1801A704710B500225D
:1002500000E0521C835C8C5CA34201D1002BF8D1DE
:10026000D8B2E1B2401A10BD30B5044600200346B2
:1002700000E05B1C934203D2E05CCD5C401BF8D0F5
:1002800030BD034611F8012B00F8012B002AF9D1EB
:100290001846704730B505460020034600E05B1C59
:1002A000934205D2EC5CC85C201A01D1002CF6D137
:1002B00030BD70B5064635F019FF046805460A22C0
:1002C0000021304600F037F82C6070BD30B50B4689
:1002D000014600202022012409E021FA02F59D4276
:1002E00005D303FA02F5491B04FA02F52844151E4A
:1002F000A2F10102F1DC30BD202A04DB203A00FA31
:1003000002F1002070479140C2F1200320FA03F36C
:10031000194390407047202A04DB203A21FA02F06A
:100320000021704721FA02F3D040C2F1200291402F
:100330000843194670472DE9F04791460F4680461D
:100340000446002614F8015B2DB100F009FA00689C
:10035000405DC007F6D12B2D02D02D2D18D0641E84
:100360004A463946204600F0FFF927B13968A142D4
:1003700001D1C7F8008071054FF002040BD540424F
:10038000002803DD35F0B2FE0460A007BDE8F08769
:1003900046F48066E4E70028F8DA35F0A7FE04604A
:1003A0006FF00040F2E72DE9FE4F804681EA03003E
:1003B000C00F0C46009021F0004123F00045B8EB3F
:1003C0000200A94105D24046214690461C460B46F4
:1003D000024623F00040104347D0270DC7F30A0020
:1003E000C3F30A510290401A019040286BDAC3F31C
:1003F000130040F4801B0098924620B10023D2EBFA
:10040000030A63EB0B0B01985946C0F140025046BA
:10041000FFF772FF06460D4650465946019A00F016
:100420008DF910EB08006141002487EA115284EA3B
:10043000E7731A4340D0009A62B3019A012A4FEA47
:10044000075215DC001B61EB02014FF0004202EA8B
:100450000752CDE90042001C41F5801132462B467F
:1004600000F0E0F903B0BDE8F08F40462146F9E71F
:10047000001B61EB0201001C41F5801300185B4179
:100480002018A2F5001747EB030140EAD570B61912
:100490006D4111E06D084FEA360645EAC0754FEA36
:1004A0000752001B61EB0201001C41F58011490855
:1004B0004FEA30000019514132462B4603B0BDE8E7
:1004C000F04F00F0A0B90098012240000023D0EBCB
:1004D000020263EBE073009821464FEAE074B8EB48
:1004E000000061EB0401E9E783F000435BE781F082
:1004F000004158E72DE9FE4F81EA030404F000446F
:1005000021F0004100944FF0000B23F0004350EA2B
:1005100001045ED052EA03045BD0C3F30A54C1F372
:100520000A552C44A4F2F3340194A0FB0254C1F305
:10053000130141F48011C3F3130343F4801301FB4F
:10054000024400FB034E840A970A44EA815447EAB6
:100550008357A4FB076802958D0A05FB07854FEAC0
:10056000932C04FB0C542705029D4FEA065847EADA
:100570001637B5EB08056EEB070C870E920E47EAAF
:10058000811742EA8312A7FB0201B6EB0B0164EB71
:1005900000042B0D43EA0C335E1844EB1C50DA4682
:1005A0005146E7FB0201C5F313044FEA0B3343EA5C
:1005B00014534FEA0432019C43EA0603A4F10C04ED
:1005C0000294009CCDE900B400F02CF903B0BDE822
:1005D000F08F00200146F9E72DE9F04D81EA030490
:1005E00004F0004B21F0004514464FF0000A23F0C0
:1005F000004150EA050220D054EA01021DD0C5F3A3
:100600000A570246C5F31303C1F31300C1F30A5698
:1006100040F4801543F48013A7EB0608101BD64660
:1006200008F2FD3873EB050002D308F1010801E080
:1006300092185B41B8F1000F03DA00200146BDE8D3
:10064000F08D00204FF48011064684460EE0171B03
:1006500073EB050705D3121B63EB050306434CEA56
:10066000010C49084FEA300092185B4150EA01073B
:10067000EDD152EA030012D082EA040083EA0501B8
:10068000084305D0101BAB4106D20122002306E02F
:1006900000224FF0004302E06FF0010253101AEB0A
:1006A00006004CEB085110EB0A0041EB0B01BDE8D2
:1006B000F04D00F0A8B8C1F30A52C1F3130140F2A3
:1006C000FF3341F480119A4202DA0020014670475C
:1006D00040F233439A42A2F2334202DC5242FFF725
:1006E0001ABEFFF709BE000030B5041E71F1000408
:1006F00004DB4FF00044404264EB0101141E73F12F
:10070000000405DB1C464FF00043524263EB040338
:10071000994208BF904230BD064C074D06E0E068A4
:1007200040F0010394E8070098471034AC42F6D338
:10073000FFF702FDC0F70408E0F70408202A06DBF3
:10074000CB17203A41FA02F043EAE07306E041FA9F
:1007500002F3D040C2F1200291400843194670478D
:100760000048704788D704082DE9F05F824600787A
:10077000002715468B460AF10104B946302801D0FE
:100780009DB113E014F8010B0127782803D05828F5
:1007900001D045B10AE00DB1102D07D10027102579
:1007A00014F8010B02E0082500E00A250026B046F7
:1007B0000EE005FB080005FB06F1012701EB1046E2
:1007C0001FFA80F8B6F5803F00D3B94614F8010B44
:1007D000294600F075F80028EBDABBF1000F05D0D0
:1007E0000FB1641E00E05446CBF80040B9F1000F91
:1007F00006D035F07BFC02210160C81EBDE8F09FE9
:1008000048EA0640FAE710B5141E73F1000408DA4E
:10081000401C41F1000192185B411A4301D120F0C4
:10082000010010BD2DE9F04D92469B4611B1B1FA81
:1008300081F202E0B0FA80F220329046FFF75CFDD0
:1008400004460F4640EA0A0041EA0B0153465A4665
:10085000084313D0114653EA010019D0C8F14002F1
:100860005046FFF758FD05460E465046594642464B
:10087000FFF742FD084305D0012004E02046394639
:10088000BDE8F08D0020054346EAE0762C4337436F
:100890000A986305E40AA0EB08000022FD0A44EA76
:1008A00047540A3002D500200146E9E70105101936
:1008B0006941DDE9084500196941BDE8F04DA2E74D
:1008C0003A2800D2303820F02002412A01D3A2F188
:1008D0003700884201D34FF0FF30704770B58C1855
:1008E00010F8015B15F0070301D110F8013B2A1144
:1008F00006D110F8012B03E010F8016B01F8016B31
:100900005B1EF9D12B0705D40023521E0DD401F82C
:10091000013BFAE710F8013BCB1A921C03E013F8F5
:10092000015B01F8015B521EF9D5A142D8D300202A
:1009300070BD000000B591B001214FF404702AF0A1
:1009400089FD012108462AF065FD4FF440402AF058
:1009500055FD264808F098FC25480190254802904E
:100960000020039003200490002005908020069032
:1009700040000790800008902020099000020A9013
:1009800000200B9001A9194808F024FD0121174807
:1009900008F06EFC00200C9001208DF834008DF8DA
:1009A00035004FF460200E9000200F9003208DF84A
:1009B00040000CA90E484C3800F034F807230122FF
:1009C0000E210B484C3800F055F8072302220F2166
:1009D00007484C3800F04EF803231A460A21044811
:1009E0004C3800F047F811B000BD0000080002408C
:1009F0004C2401408000002021B1826842F00102B5
:100A0000826003E0826822F001028260704721B1B7
:100A1000826842F48072826003E0826822F480720D
:100A20008260704730B502460020002350680F4CAA
:100A300020400D790C6844EA0524204350609068FA
:100A40000B4C2040D1E902542C434D7944EA450433
:100A500020439060D06A20F470000C7C641EE4B2E5
:100A6000234340EA0350D06230BD0000FFFEF0FF98
:100A7000FDF7F1FFF0B504460D4600200021092DD9
:100A800011DDE068A5F10A0606EB4607072606FA1F
:100A900007F18843A5F10A0606EB460603FA06F1BC
:100AA0000843E0600CE0206905EB4507072606FADD
:100AB00007F1884305EB450603FA06F10843206178
:100AC000072A0FDA606B561E06EB86071F2606FA0A
:100AD00007F18843561E06EB860605FA06F1084321
:100AE000606322E00D2A0FDA206BD61F06EB860723
:100AF0001F2606FA07F18843D61F06EB860605FA7D
:100B000006F10843206310E0E06AA2F10D0606EB4F
:100B100086071F2606FA07F18843A2F10D0606EBA9
:100B2000860605FA06F10843E062F0BD21B182684D
:100B300042F4A002826003E0826822F4A002826094
:100B400070470146302904DB392902DC01F00F002F
:100B50007047412901DB462903DD612905DB662950
:100B600003DC01F00F000930F2E70020F0E700009D
:100B70002DE9F04105460E46287800F080004D49E9
:100B80000870307800F080004B490870287800F039
:100B900007004A490870307800F00700484908709B
:100BA00011214848FFF72AFB11214748FFF726FB90
:100BB0004448D5F801100160D5F80510416042485D
:100BC000D6F801100160D6F8051041603B48007866
:100BD0003B49097888420FDD07E039480078401C1E
:100BE00037490870384800F009FF34480078344924
:100BF00009788842F1DC14E03048007830490978FF
:100C000088420EDA07E02D480078401C2B49087016
:100C10002C4800F0F3FE29480078294909788842D9
:100C2000F1DB072425E02748005D2749095D88425C
:100C300000DD20E02348005D2349095D884216DA83
:100C4000002409E01F48075D1F48005D1D49085545
:100C50001D480755601C04B2082CF3DB16480778C2
:100C600014480078144908701248077003E0601EA9
:100C700004B2002CD7DA00BF0E4800780E4909787C
:100C8000884202D100F024F801E030F01FFA094850
:100C900000780E49087007F0DBFD0C4800782870DA
:100CA00008480168C5F801104068C5F80500BDE8AE
:100CB000F0810000F3010020F4010020F501002084
:100CC000F60100206729002078290020F201002089
:100CD00070B500210024002030E01A4D2D5C05F095
:100CE0000F05184E365C361106EB860605EB4605F9
:100CF000EAB2154D2D5C05F00F05134E365C36112A
:100D000006EB860605EB4605EBB2D5182544E9B29D
:100D1000632904DDA1F16405E9B2012400E00024A7
:100D20000A2591FBF5F605FB16150A2691FBF6F64A
:100D300005EB0615034E3554451C28B21028CCDBB4
:100D400070BD0000672900207829002010B511F03F
:100D5000F3FD144890F8C206134909680844124983
:100D6000086000200F4981F8590F15E00D4890F8F0
:100D7000591F00F2C46000EBC10100F63C300A6864
:100D800002634968416300F05BFA064890F8590F26
:100D9000401C044981F8590F024890F8590F062861
:100DA000E4DB10BDAC290020EC01002010B511F0EF
:100DB000D3FD144890F8F70613490968084412490E
:100DC000086000200F4981F8590F15E00D4890F890
:100DD000591F00F2F96000EBC10100F607300A6804
:100DE00002634968416300F02BFA064890F8590FF6
:100DF000401C044981F8590F024890F8590F062801
:100E0000E4DB10BDAC290020EC01002010B519482E
:100E1000B0F87F1FB0F82907814229DA11F066FE89
:100E2000144890F82D0714490968084412490860CD
:100E30000020104981F8590F15E00E4890F8591F0D
:100E400000F2327000EBC10100F6CE200A680263A6
:100E50004968416300F0F4F9064890F8590F401CC6
:100E6000044981F8590F034890F8590F0628E4DB2C
:100E700010BD0000AC290020EC01002010B511F0DD
:100E800095FE144890F8650713490968084412490B
:100E9000086000200F4981F8590F15E00D4890F8BF
:100EA000591F00F2677000EBC10100F699200A6833
:100EB00002634968416300F0C3F9064890F8590F8E
:100EC000401C044981F8590F024890F8590F062830
:100ED000E4DB10BDAC290020EC01002010B519485E
:100EE00090F8321F90F89707814229DA11F06EFED0
:100EF000144890F89A071449096808441249086090
:100F00000020104981F8590F15E00E4890F8591F3C
:100F100000F29C7000EBC10100F664200A680263D5
:100F20004968416300F08CF9064890F8590F401C5D
:100F3000044981F8590F034890F8590F0628E4DB5B
:100F400010BD0000AC290020EC01002010B52B489A
:100F5000D0F8A1042A4908600020284981F8590FD7
:100F600015E0264890F8591F00F28F6000EBC10190
:100F700000F671300A6802634968416300F060F965
:100F80001E4890F8590F401C1C4981F8590F1B4806
:100F900090F8590F0628E4DB1848B0F8811FB0F824
:100FA000CC07814229DA11F083FE144890F8D0076B
:100FB0001349096808441249086000200F4981F864
:100FC000590F15E00D4890F8591F00F2D27000EB50
:100FD000C10100F62E200A6802634968416300F0EF
:100FE0002FF9064890F8590F401C044981F8590F11
:100FF000024890F8590F0628E4DB10BDAC29002008
:10100000EC0100201CB52A48B0F8FD4E294814F028
:10101000B3F8284BDA78997818880CF0A5FF2649A0
:101020004881B4F5006F3DDA4FF4004101EB041044
:10103000214A0A32102135F0C3FF1F490C800020DD
:101040004880009001904FF4804101EBC4006A4653
:10105000082135F0B5FF1648B0F8FD0E401C81B2EE
:101060001348A0F8FD1EC4F3090413480088B0F526
:10107000806F04DA10480089B0F5804F09D00E481F
:101080000088B0F5806F11DB0B480089B0F5C04FC8
:101090000CD109481A3000EBC40000990160019995
:1010A000416003E05A20024981F8330F1CBD000063
:1010B000AC2900208C590020F765002010B512F0F3
:1010C00073FD144890F80808134909680844124948
:1010D000086000200F4981F8590F15E00D4890F87D
:1010E000591F00F61A0000EBC10100F6E6100A686D
:1010F00002634968416300F0A3F8064890F8590F6D
:10110000401C044981F8590F024890F8590F0628ED
:10111000E4DB10BDAC290020EC01002010B54FF03D
:10112000FF3012F00BFE144890F8190813490968B3
:1011300008441249086000200F4981F8590F15E052
:101140000D4890F8591F00F64A0000EBC10100F667
:10115000B6100A6802634968416300F071F80648F6
:1011600090F8590F401C044981F8590F024890F833
:10117000590F0628E4DB10BDAC290020EC0100204B
:1011800010B512F00BFE144890F880081349096856
:1011900008441249086000200F4981F8590F15E0F2
:1011A0000D4890F8591F00F6870000EBC10100F6CA
:1011B00079100A6802634968416300F041F8064803
:1011C00090F8590F401C044981F8590F024890F8D3
:1011D000590F0628E4DB10BDAC290020EC010020EB
:1011E00010B512F061FE144890F8BA081349096866
:1011F00008441249086000200F4981F8590F15E092
:101200000D4890F8591F00F6BC0000EBC10100F634
:1012100044100A6802634968416300F011F8064807
:1012200090F8590F401C044981F8590F024890F872
:10123000590F0628E4DB10BDAC290020EC0100208A
:1012400070B5664890F8440F00B170BD644890F8DE
:10125000300200B9F9E76348407800B9F5E75F4824
:1012600090F84C0F00B1F0E700245D4890F8300290
:1012700000F0010018B15B484078204484B258481F
:1012800090F8300200F0020018B15648407820442F
:1012900084B2534890F8300200F0040018B151486D
:1012A0004078204484B24E4890F8300200F00800A4
:1012B00018B14C484078204484B22546474890F8FD
:1012C000590F06285CD2DFE800F003061B30455AB0
:1012D0000024002555E04148B0F82D0500B9B4E7D9
:1012E0003E48B0F82D053D49B1F87B1F401A6843D0
:1012F00085B23A48B0F87B0F401E604384B240E0AC
:10130000364890F8560900B99FE7344890F85609D6
:10131000324991F8661F401A401E684385B22F4833
:1013200090F8660F604384B22BE02C4890F8870950
:1013300000B98AE7294890F88709284991F82F1FB2
:10134000401A401E684385B2244890F82F0F60432E
:1013500084B216E0214890F8880900B975E71F4863
:1013600090F888091D4991F8511F401A401E6843A2
:1013700085B21A4890F8510F604384B201E064E7E7
:1013800000BF00BF1848006820441749086014488F
:1013900090F8300200F0010008B100F0F9F81048B0
:1013A00090F8300200F0020008B100F0F1F80C48AB
:1013B00090F8300200F0040008B100F0E9F80848A5
:1013C00090F8300200F0080008B100F0E1F806489B
:1013D000006828440449086000BF36E7AC290020B3
:1013E000AC390020DC3B0020EC0100203EB5184861
:1013F00090F83A0F58BB164890F8370F022826D0BD
:10140000134890F8440F10BB114890F84A0F08B1E8
:10141000032400E000240F48016800914168019115
:10142000007A8DF808000C4820440188ADF80110BE
:1014300080788DF8030009496846FFF799FB064854
:101440002044BDF8011001809DF8031081703EBD5D
:10145000AC290020ECC00308B9380020F5C003080F
:1014600070B504460126184890F8620F44401648AB
:1014700090F8630F444000250EE004EA060038B1FE
:1014800005EBC501114A8818A2F1A201FFF770FB14
:101490007006060E681CC5B2082DEEDB0B49A2399A
:1014A00001F18700FFF764FB0849483901F1360074
:1014B000FFF75EFB044890F8630F034981F8640F5F
:1014C000002081F8630F70BDAC290020D8480020AF
:1014D00010B513F031FE144890F8EF08134909686D
:1014E00008441249086000200F4981F8590F15E09F
:1014F0000D4890F8591F00F6F10000EBC10100F60D
:101500000F100A68026349684163FFF799FE0648B5
:1015100090F8590F401C044981F8590F024890F87F
:10152000590F0628E4DB10BDAC290020EC01002097
:1015300010B513F011FE144890F8240913490968F6
:1015400008441249086000200F4981F8590F15E03E
:101550000D4890F8591F00F6261000EBC10100F667
:10156000DA000A68026349684163FFF769FE0648CA
:1015700090F8590F401C044981F8590F024890F81F
:10158000590F0628E4DB10BDAC290020EC01002037
:1015900010B5404890F84A0F60B13E4890F8590F96
:1015A000012807D03C4840783C49096808443B4939
:1015B000086010BD394804682BF03EF937480460D4
:1015C000344890F8260F38B134F0DAFC32484078CD
:1015D0002044324908605AE02F48807890B12E4864
:1015E0002B30407A00F0080060B92A4890F8680F64
:1015F00040B9284890F8370F20B9294926482B30A0
:10160000FFF7B6FA2448C07868B123482B30407AF7
:1016100000F0830020492B31487201F68941A1F581
:101620004860FFF7A5FA1C48007920B11D49A1F6D2
:101630001D40FFF79DFA18484079A0B119497E3145
:10164000A1F692402FF082FD13482B30C07E00F0AF
:10165000800040B11048463013490A6802604A6869
:101660004260097A01720C48807928B10D491B311A
:10167000A1F62640FFF77CFA0748C07928B109494E
:101680001231A1F61440FFF773FA34F079FC00BF71
:101690008FE70000AC290020DC3B0020EC0100209B
:1016A000F5C0030836480020ECC00308002070474E
:1016B0002DE9F04106460C462EB92F4890F820043B
:1016C00000F00F0040B9002E53D02B4890F82004B2
:1016D00000F0F00000284CD0277800202070264829
:1016E00090F8200400F00F051DB9234890F820045D
:1016F0000509012D06D0022D12D0032D1FD0042D77
:1017000035D128E0607800F00F00052803DB1B4985
:101710002046FFF72DFA607800F0F000607026E0B8
:10172000657800206070742D04DD15492046FFF7B0
:101730001FFA03E0242D01DD5020607017E060786F
:1017400000F0F00500206070502D03DB0C492046AE
:10175000FFF70EFA0BE0607800F0F00500206070F3
:10176000002D03DD06492046FFF702FA00BF00BF47
:101770002770BDE8F0810000AC290020FEC00308FE
:1017800007C1030810B504463048007830B920225C
:101790004F212F48FEF72BFD05F049FF2D4890F80B
:1017A000710F00F01000002838D12F2C03D1302009
:1017B000FFF7E8FF30242E2C1AD1264890F8300F7E
:1017C000A0B90120234981F8300F2048007828BBB8
:1017D00030201F4981F84D002E2081F84E00002056
:1017E00081F84F0002201949087010BD0020FCE765
:1017F000184890F8300F88B1302C0FDB392C0DDCF5
:10180000144890F8300F032801DD0020EDE711485F
:1018100090F8300F401C0F4981F8300F0B480078CA
:1018200028B14E220A49491C481EFEF7CEFC084842
:1018300080F84E400020064981F84F0003480078A8
:10184000401C0249087008460078CEE7A502002037
:1018500095590020AC29002010B501460A12CBB2E0
:1018600002F00F00141104EB840400EB440000EBC1
:10187000C00404EB00104FF6FF7404EA800203F08A
:101880000F001C1104EB840400EB4400104480B2F0
:1018900010BD00002DE9FF4782460C4691461D46CB
:1018A000DDE90D780C9E134890F8E403012802D07E
:1018B000022812D108E02B464A460FA150468DE877
:1018C000D00134F0EDFB11E04B46224612A1504608
:1018D0008DE8E00134F0E4FB08E04B462A4606A11F
:1018E00050468DE8D00134F0DBFB00BF00BFBDE8FF
:1018F000FF870000AC290020253032782D253032BA
:10190000782D32302530327820253032783A253023
:1019100032783A25303278003230253032782D2531
:101920003032782D2530327820253032783A253003
:1019300032783A25303278002DE9F0470346002509
:101940002846294606221CE09C5C992C16DC9C5CEF
:1019500004F00F049D5C2D1105EB850504EB450497
:101960004FF0640C4FF000098046A8FB0C6A01FBA5
:101970000CA700FB0977A01947EBE471A2F1010461
:1019800022B2002AE0DABDE8F08730B502460C4604
:101990000023062113E0505C99280EDC505C00F017
:1019A0000F00555C2D1105EB850500EB450003EBA1
:1019B000C30505EB031500EB8503481E01B20029A2
:1019C000E9DA236098B230BD30B500240F30002131
:1019D00001E0401E491C102902DA0578002DF8D0DC
:1019E00009E005782D072A0E05782B091D190570C9
:1019F0001446401E491C1029F3DB30BD30B50024CD
:101A0000002109E005782D072A0E05782B09151904
:101A100005701C46401C491C1029F3DB30BD0146F3
:101A2000072005E04A1C125C02B103E0421E10B21E
:101A30000028F7DA00BF421C10B200280BDD421E5E
:101A40004B1C9A5C0F2A04DA0122C2EB400210B24E
:101A500001E0420010B20A7802F080020AB1421C92
:101A600010B2704708B5014600200090034800906E
:101A70000098084400900098008808BD006C004061
:101A800008B500220092044A0092009A0244009293
:101A9000009A116008BD0000006C004010B50446BB
:101AA0001548B0F8C40F00F4007020BB4CB11349C6
:101AB0001348B0F8460008800846007840F08000DF
:101AC00008700D4890F8C40F00F00100C0F1080044
:101AD000C0EBC00000EB4002094979390948FEF724
:101AE00074FB35F0C1FC0448B0F8C40F40F4007139
:101AF0000148A0F8C41F10BDAC490020CC01002053
:101B00002C590020AA24002010B50F4890F8FD039E
:101B100000F007041CB10C4890F8330F08B1002006
:101B200010BD611EC8B20CF0FBF9611EC8B20521E0
:101B30002DF01DFA00200549087005490870054977
:101B400008800120ECE70000AC290020690100209A
:101B5000680100206C01002070B5B34890F8FD03C7
:101B600000F007051DB1B04890F8330F08B1002010
:101B700070BDE7E0691EC8B202F08CF830B1691E92
:101B8000C8B22AF04BF80446401C08B90020EFE721
:101B9000A6480088B8BB0020A5490870A549087070
:101BA000A5490870012C10D0022C12D0062C02D0AE
:101BB000462C16D111E0691EC8B211212DF0D7F9BB
:101BC00002209E4908700020D2E702209B4908703D
:101BD00009E000209949087005E001209749087044
:101BE00001E00020C4E700BF8F4890F8FD0300F03B
:101BF00007009249097801F00F0140EA01118A4873
:101C000080F8FD1330E0FFE78C48007802282BD1E4
:101C1000042C1FD18648007880F0030084490870A6
:101C20000846007848B986488078532805D184480A
:101C3000008840F2012188420BD0691EC8B20CF026
:101C40006FF95520784981F8330F002077490880D3
:101C50008EE778E07548B0F90000012804DD74488B
:101C600000786040724908707248007838B16F4857
:101C7000B0F900006F490978401A012804DC704966
:101C80006A4AB2F900208C54302C01DB392C01DD7A
:101C90002E2C0AD16848007818B964480078664943
:101CA0000870624800786349087060480088401CEA
:101CB00000B25E49088061480078012819D10846C1
:101CC00000880A2815D15C48007818B908460078C1
:101CD0005949087055480078564908702E215348D4
:101CE000B0F900200088401C00B2504B18805448C6
:101CF00081544E48B0F900001E2801DA0A2C03D1A5
:101D000000204A49088033E70D2C1BD14B4800784E
:101D100018B94B480078022807D0484800780128B5
:101D200004D147480078462800D10CE0691EC8B2AB
:101D30000CF0F6F855203C4981F8330F00203B4960
:101D4000088015E716E700BF002005F0BBFA691E02
:101D5000C8B20CF0E5F800203A4908703349088011
:101D6000002600253448007832490978884259DA3B
:101D70003148047832E04EB93148005B43F230011B
:101D8000884201D0012000E00020064626B3002151
:101D90002D48A0F8841E2A48055D2E2D06D1234823
:101DA000008818B901202149088008E01F480088F0
:101DB00028B11E480088401C00B21C4908801B48FE
:101DC000B0F90000042807DC1F48A0F8825E014635
:101DD000B1F8820E15F0DAFC601C04B215480078E8
:101DE0008442C8DD002011490880012000F0CCF9B0
:101DF0000D48B0F8790F432804D00B48B0F8790F9C
:101E000045280FD100211048A0F8841E40F2D4715B
:101E1000A0F8821E0120044981F8340F22F0BEFD93
:101E20000120A5E60020A3E6AC2900206C010020DB
:101E30006A01002069010020680100206E01002075
:101E40007E230020A8020020AC39002070B5844811
:101E500090F8FF0300F00705814890F8330F90B920
:101E60007F48B0F8790F42280DD07D48B0F8790F3F
:101E7000462808D07A48B0F8790F472805D1794824
:101E800000781F2801D0002070BD002679E05DB1E8
:101E9000691EC8B201F0FEFE30B1691EC8B229F059
:101EA000BDFE0446401C08B90020EDE7E4B26E48D0
:101EB00001680068401C6C4A10606C48445410462D
:101EC0000068FE2803DB002011460860DCE70A2CCE
:101ED00011D006DC022C09D0032C31D0092C40D1C2
:101EE0002DE00D2C2AD0242C3BD100E000BF002097
:101EF0005D490860C8E75C480068801E5B49085C73
:101F00000D280AD158480068801E574908600020F3
:101F10005649554A126888540EE053480068401EDE
:101F200051490860002051494F4A126888544E4870
:101F3000006808B90020A7E7012621E000BF00BF24
:101F400049480068401E4849086000204749464A01
:101F5000126888544448006808B9002094E70126B4
:101F60000EE0202C01DB7E2C09DD3F480068401E7E
:101F70003D49086000203D493B4A1268885400BF33
:101F800000BF002E83D0002005F09CF900203849C6
:101F900008703348B0F8790F47281CD131480078D1
:101FA000C8B92F4991F85B1F01F0040109B106215E
:101FB00000E0042108462D4918F04CFA05F048FBD2
:101FC00005F024FB08220421284809F057FD0020D1
:101FD0002549086058E72448007826490870002001
:101FE000214908602449234A1278891A481E214948
:101FF0000A781E49FEF7E9F80120194981F8350FE2
:1020000002F0F4FD1648B0F8790F43281CD01448AC
:10201000B0F8790F452817D000211848A0F8821E83
:1020200000200F4981F8430F0846B0F8790F442883
:1020300004D113480078134908700FE0084890F85D
:10204000C7031049087009E000210C48A0F8841E5D
:1020500042F21071A0F8821E22F0A0FC012013E7CA
:10206000AC290020A3020020700100209C23002046
:10207000A8020020A5020020E5590020AC3900206C
:10208000B30200209C02002030B502460B4600201F
:10209000591E0EE0C40004EB4004555C04EB25100F
:1020A000C40004EB4004555C05F00F0560194C1E9C
:1020B00021B20029EEDA30BD10B5044611210948DD
:1020C000FEF79CF8074854F8011F01606168416001
:1020D000FFF77AFC03480168216040686060641E75
:1020E00010BD000067290020D0F80220C0F80120B0
:1020F000C288A0F80520017AC171002202727047DF
:1021000010B5044611210948FEF778F8074854F83D
:10211000011F016061684160FFF770FC03480168BE
:10212000216040686060641E10BD000067290020C7
:10213000072105E04A1E431C9B5C421C5354491E68
:102140000029F7DC002242707047000008210C4A89
:102150001160012803D10A210A4A11800EE00228E9
:1021600003D12821074A118008E0032803D1502118
:10217000044A118002E00A21024A118070470000DF
:10218000141401406E00002000B50346D8B2FFF7DA
:10219000DDFF002000BD00002DE9FC5F834689467D
:1021A00016461C46082E00D90826002C3ED0204892
:1021B000D0F800A04FF00008601E04B229E0A5B2DC
:1021C00005EB080085B26D1005FB09A018490860F1
:1021D000314668462AF046FA32466946584606F0C5
:1021E0000FFA0746002F03DA2CB2601E04B210E08B
:1021F00037B10FFA85F808F101000FFA80F808E00E
:102200000B480068801B0A490860681C80B2BDE862
:10221000FC9FA045D3DD06480068801B0449086088
:10222000002F03DD08460068484408600020EEE700
:10223000EC0100202DE9F84381460F4690461C46EC
:10224000B9F13C0F75D009DCB9F1340F11D0B9F1F7
:10225000350F0DD0B9F1360F6AD10DE0B9F1440F49
:102260000CD0B9F1450F7ED0B9F1460F7CD161E0B9
:102270007FE00020BDE8F8830020FBE73E48B0F88F
:10228000710F00F4006000284FD1F8B28DF8000003
:10229000022608F00100A8B33848407E18B9302063
:1022A0008DF8010035E02CB1202C03DCE0B28DF874
:1022B0000200032631208DF80100142231466846C1
:1022C00029F0A8F900250AE005EB45112B4A19323F
:1022D000881804221F2129F09DF9681CC5B2082D19
:1022E00006DA05EB451025491931085C0028EBD1C9
:1022F00000208DF8000004220121684629F08AF9A7
:102300000120B7E7FFE708F0020010B132208DF896
:1023100001002CB1202C03DCE0B28DF80200032672
:1023200014223146684629F075F90120A2E700E041
:102330001AE01EE047B13846FDF781FFC6B2202EF5
:1023400003DD202601E00EE000260B48B0F8710FF7
:1023500000F4006028B908F0FF023146384629F041
:1023600059F9012086E704E0494605A032F0C0F89B
:1023700000BF00BF00207DE7AC290020AC49002051
:10238000436F6D6D616E642025640A0010B588B0DE
:10239000044620461D2C7DD00CDCA0F10F000D283A
:1023A00079D2DFE800F0317878302B7878783539D9
:1023B00047433F00502841D006DC332830D03D2829
:1023C00009D03F2867D10DE0512878D0522875D028
:1023D0005328F7D1D0E012F0F5FF00908248008832
:1023E00008B010BD8148B0F8710F00F4006020B94A
:1023F00080220021084629F00DF9F1E015F05BFC80
:1024000028F0EEFFECE0EBE015F054FC0020E7E7ED
:1024100000200BF0A3FDE3E001200BF09FFDDFE0C7
:102420000020DDE70320FFF791FED9E00220FFF74F
:102430008DFED5E00120FFF789FED1E001A835F03F
:102440002EFE0798B0F5FA6F02DA0020079003E03D
:102450000798A0F5FA6007900A21049890FBF1F222
:1024600001FB12000A22049991FBF2F100EB01102A
:102470005F4908700A21069890FBF1F201FB1200F7
:102480000A22069991FBF2F100EB011058494870BD
:102490000A2101E09CE09EE0079890FBF1F201FB2D
:1024A00012000A22079991FBF2F100EB011050494A
:1024B00088700598C870012092E700E02EE001A81E
:1024C00035F0EDFD0A21039890FBF1F201FB1200BB
:1024D0000A22039991FBF2F100EB011045490870C3
:1024E0000A21029890FBF1F201FB12000A220299E4
:1024F00091FBF2F100EB01103E4948700A2101986E
:1025000090FBF1F201FB12000A22019991FBF2F11A
:1025100000EB011037498870002061E701A835F011
:10252000BEFD3348807800F00F00314989780911E9
:1025300001EB810100EB410000F5FA6007902C48A7
:10254000407800F00F002A494978091101EB810118
:1025500000EB410006902648007800F00F00244967
:102560000978091101EB810100EB4100049001A8F9
:1025700035F0C1FD002033E701A835F090FD1D487E
:10258000007800F00F001B490978091101EB810167
:1025900000EB410003901748407800F00F00154908
:1025A0004978091101EB810100EB410002901148CB
:1025B000807800F00F000F498978091101EB810143
:1025C00000EB4100019001A835F095FD002007E7E0
:1025D00002F004FD04E7214607A031F089FF00BFA7
:1025E00000BF0020FCE60000E6020020AC2900202D
:1025F0000000002004000020436F6D6D616E645F79
:10260000312025640A0000002DE9F84F80468946F4
:1026100015461E46DDF828A0374800680090CB46D6
:10262000A8F10104B8F1030F63DCBAF1000F02D086
:102630000020AAF80000F5B909E02EB12E48016883
:102640000098081AB04202D90020BDE8F88F04EBC8
:10265000440000EBC410294901EB0010C06804EBF2
:10266000440101EBC411254A02EB0111896888423B
:10267000E3D00120E9E7681C88B9002004EB44019D
:1026800001EBC4111D4A02EB0111886004EB440107
:1026900001EBC41102EB0111C8600120D5E7B9F1CB
:1026A000000F15D104EB440000EBC410134901EBFB
:1026B0000010C06804EB440101EBC4110F4A02EBA7
:1026C00001118968884201D00120BEE70020BCE7E3
:1026D00000270AE032465946404631F03DFA08B933
:1026E00038B2B2E70BF1010B7F1CAF42F2DB284698
:1026F000ABE70020A9E70000DC0000205005002027
:102700002DE9F04705460E4617469946B046032D7B
:102710000EDC002407E098F80010284631F0B8FBE2
:1027200008F10108641CBC42F5DB0120BDE8F0871C
:102730000020FBE770B5002500BF0E48806800F45C
:1027400000544FF47A7035F0B9FE0A48806800F4FE
:102750000056B44204D16D1C1CB1022D01DD02E013
:102760000025322DE9DB00BF0CB9012070BD00202F
:10277000FCE700000010014030B5024600200FE0E9
:102780000B7801248440234023B13124431D064D9E
:10279000EC5403E03024431D034DEC54431C18B2A9
:1027A0000828EDDB30BD0000FF59002000BFFEE728
:1027B0000146CAB20B1243EA0220704710B500204E
:1027C0000349086003202CF029FF012010BD000000
:1027D000640100202DE9F04106460C4600271FE069
:1027E00002E0052035F06AFE104800680028F8D0A5
:1027F00000200E490860402C01DD402500E0254600
:10280000F0192A46C02132F00BFD294601202CF098
:102810002FFF01202CF05AFF601BC4B2781987B239
:10282000002CDDDC0120BDE8F0810000600100200B
:1028300008B50020009022E19748008800F00F00C2
:10284000964908700846007800287CD194480068B2
:10285000944908800846008800F0300092490880BA
:102860009048008800F440508E4908808C490968DF
:102870004BF6BF7201EA020080F4005080F02000A5
:1028800040F4004141F08001854A1160824800888F
:1028900000F0100090BB1046006848F60F71084029
:1028A0001146086013F0F0F97D4909684BF6BF72D4
:1028B00001EA02007B49098801F4805109B180F4E2
:1028C00080507849098801F4005109B180F4005022
:1028D0007549098801F0100109B180F010007249B2
:1028E000098801F0200109B180F0200081B241F493
:1028F000004141F080016A4A116008BDFFE7684865
:10290000006880B20090BDF8000000F40060B0B331
:1029100063480068C0F30E0048F68F7108406049B4
:1029200008602DF0C3FB5E4909684BF6BF7201EAEF
:1029300002005C49098801F4805109B180F480509B
:102940005849098800E056E001F4005109B180F4CB
:1029500000505549098801F0100109B180F01000BC
:102960005149098801F0200109B180F0200081B2AD
:1029700041F4004141F08001494A1160BDE7FFE7A1
:10298000BDF8000000F40040002878D044480068FA
:10299000C0F30E0048F68F7108404149086017F0F7
:1029A00031FD3F4909684BF6BF7201EA02003D491B
:1029B000098801F4805109B180F4805039490988AF
:1029C00001F4005109B180F400503749098801F041
:1029D000100109B180F010003349098801F020018D
:1029E00009B180F0200081B241F4004141F0800142
:1029F0002B4A116081E7294800782C4901EB8000BF
:102A0000D0F8000C80B20090BDF8000000F4004047
:102A1000C0B12248007801EB8000D0F8000CC0F370
:102A20000E0048F68F7108401C4909781F4A02EBD6
:102A30008101C1F8000C19490978491E1C4A52F855
:102A400021008047BDF8000000F08000B8B11348B5
:102A50000078164901EB8000D0F8000C48F60F71A1
:102A600008400E490978114A02EB8101C1F8000CB7
:102A70000A490978491E0F4A52F821008047084840
:102A80004430006880B20449088000F40040002807
:102A90007FF4D2AE00BF30E74C04002028050020B0
:102AA000005C00403C0500203E0500200050004036
:102AB00074040020580400202DE9F04190B0054630
:102AC000FE4801680A9141680B91007A8DF8300048
:102AD000FA481B300168079141680891007A8DF827
:102AE0002400F6480A38416E0491816E059190F8F1
:102AF0006C008DF81800F248B0F8957FB0F87F8F21
:102B00000026A5BBEF4801680D9141680E91007A3F
:102B10008DF83C00EB480168019141680291007A10
:102B20008DF80C00E5480A38016C0191416C029166
:102B300090F848008DF80C00E34901A816F0D8FE83
:102B4000E248407800F0080028B99DF8040080F0C1
:102B500080008DF80400DA4890F84E0F002805D068
:102B60009DF8040080F080008DF80400D1E0FFE7BC
:102B7000022DFBD1D34801680D9141680E91007A76
:102B80008DF83C00CF480168019141680291007ABC
:102B90008DF80C00C9480A38016C0191416C029112
:102BA00090F848008DF80C0000248EE0C4EB04116E
:102BB000C74800EB4100008841F2883188426DDD52
:102BC000C4EB0411C24800EB4100008842F21071CE
:102BD000884214DDC4EB0411BD4800EB41000088BD
:102BE000A0F51C501138B649A1F8950F29F096FBB5
:102BF000B348B0F8A30FB249A1F87F0F0BE0C4EBC4
:102C00000411B34800EB41000088A0F598508938C2
:102C1000AB49A1F87F0F29F03FF8AC48407800F0AD
:102C2000400020B9A948407800F08000C0B1A74812
:102C3000407800F0400030B1A4482F3890F82200CE
:102C400000F0400060B9A148407800F0800030B149
:102C50009E482F3890F8220000F0800000B932E042
:102C6000C4EB04119A4800EB410050F8151F0D9178
:102C700041680E91007A8DF83C0006F0020038B1F0
:102C80009DF8340080F080008DF8340026F00206B4
:102C90000DA98A480930FDF76BFF13E0C4EB04115E
:102CA0008B4800EB4100008840F22F11884208D089
:102CB000C4EB0411864800EB41000088B0F5977F13
:102CC00000D100E000BF601CC4B28248D0F8AF025F
:102CD000A0423FF76BAF804901A816F009FE774983
:102CE000093101A80AF0A6FB7848407800F00800F6
:102CF00028B99DF8040080F080008DF80400704829
:102D000090F84E0F28B19DF8040080F080008DF8F7
:102D100004000024C3E1C4EB04116D4800EB410042
:102D2000008841F2883188427DDD26F00106C4EB3F
:102D30000411674800EB4100008842F2107188429C
:102D400016DD46F00106C4EB0411614800EB4100BA
:102D50000088A0F51C5011385949A1F8950F29F0A9
:102D6000DDFA5748B0F8A30F5549A1F87F0F0BE0E3
:102D7000C4EB0411564800EB41000088A0F59850C0
:102D800089384F49A1F87F0F28F086FF042D31D1F3
:102D90004A480A9901600B9941609DF83010017210
:102DA0004A48407800F0400038B94848407800F080
:102DB000800010B900F0A8FB41E14448407800F0E1
:102DC000400030B141482F3890F8220000F0400018
:102DD00068B93E48407800F080000028ECD03B48BD
:102DE0002F3890F8220000F080000028E4D000F096
:102DF0008BFB24E13548407800F0400020B933488F
:102E0000407800F08000D0B13048407800F04000B9
:102E100030B12E482F3890F8220000F0400070B9F1
:102E20002A48407800E0B0E000F0800030B1274848
:102E30002F3890F8220000F0800000B92DE1012D1C
:102E400060D1C4EB0411224800EB410100F6F230DE
:102E5000CA6802600A694260097D017206F00200D8
:102E600038B19DF8340080F080008DF8340026F0F1
:102E70000206C4EB0412164800EB4200C11C0F48C6
:102E80001B3016F035FDC4EB0412114800EB420074
:102E900000F1150109481B302EF058F9074800F1E0
:102EA0001B010A6802604A684260097A0172C4EB39
:102EB0000411074800EB410110E0000036480020F3
:102EC000AC290020ECC0030822C103080D3B002000
:102ED0005F3C0020AC39002034C1030800F6CD303F
:102EE00051F8032F42664A688266097A80F86C10AE
:102EF000A0F5686090F8E40E80F08001824880F8C8
:102F0000E41E9CE0C4EB0411804800EB410050F843
:102F1000151F0D9141680E91007A8DF83C0006F066
:102F2000020038B19DF8340080F080008DF8340044
:102F300026F0020601A90DA816F0DAFC74490DA8C6
:102F40000AF078FA00210DA82AF044FD0DA901200D
:102F5000FEF7AEFB6F480D9901600E9941609DF838
:102F60003C1001721B380D9901600E9941609DF86B
:102F70003C100172C4EB0412644901EB420101F1FF
:102F800015000DA9FDF7F4FD59E0C4EB04115F48ED
:102F900000EB41000088B0F5FA7F1FDDC4EB04119F
:102FA0005A4800EB41000088B0F5FC7F16DC012D8B
:102FB00014D1C4EB0411554800EB41015548CA68CF
:102FC00002600A694260097D01721B3851490A6832
:102FD00002604A684260097A017230E0C4EB041171
:102FE0004A4800EB41000088B0F5FC7F0BDDC4EBE4
:102FF0000411464800EB41000088B0F5FE7F02DC7A
:10300000012D00D149E0C4EB0411404800EB410020
:103010000088B0F5977F02D1042D00D03DE03D48F7
:103020003D490A6802604A684260097A01721B38A9
:1030300039490A6802604A684260097A01721DB91A
:10304000364890F84E0F48B13248253832490A6860
:1030500042664A688266097A80F86C10042D1BD09B
:103060002F4890F820102D48B0F8CC07814206DA9E
:103070002B4890F820002949A1F8810F03E0002097
:103080002649A1F8810FFDF761FF06F0010008B1A4
:10309000FEF776F8FDF7BAFE00BF601CC4B21A480E
:1030A000D0F8AF02A0423FF736AE1C4890F84E0F62
:1030B00038B119480168019141680291007A8DF890
:1030C0000C0014481B380A9901600B9941609DF867
:1030D000301001721B3007990160089941609DF81A
:1030E00024100172253804994166059981669DF87E
:1030F000181080F86C100948A0F8957FA0F87F8F11
:1031000010B0BDE8F0810000AC3900205F3C002029
:1031100034C1030851480020ECC00308AC2900204A
:10312000DE3A00202DE9F04186B004460027002554
:103130001CB9ED490020FEF7BBFAEB481230EA4912
:103140000A6802604A684260097A0172E74890F8AA
:10315000EC0800287DD0E54890F83E0F002878D193
:1031600000BF0020E14981F8610F93E129F030FBB5
:10317000DF48007C00F00800E8B1022D19D1DA48E0
:10318000873803990160049941609DF81410017219
:10319000D64890F8610F00EBC000D3491B310144C1
:1031A000D148873802680A6042684A60007A08722B
:1031B00014E0012567E1022D00D164E1CB4890F8CD
:1031C000610F00EBC000C8491B310144C648873875
:1031D0000A6802604A684260097A0172C2489138FE
:1031E000C4490A68C2614A680262097A80F82410F8
:1031F0000A3002F06DFE00287DD0BB489138BD49F1
:103200000A6842664A688266097A80F86C106430FF
:10321000B749B1F80D20A0F80120C97BC170B448AE
:10322000007C00F0010040BBAF48913800F10A017A
:103230000A68C2614A680262097A80F8241004218F
:10324000A0F5686080F8E41E00F6E46100F69C607A
:1032500000E03CE116F04CFB0021A34875382AF051
:10326000B9FBA14975390120FEF722FA9E4975394B
:1032700001F18700FDF77CFC4FE0032C01D0022C0C
:103280004BD19948913800F10A010A68C2614A6835
:103290000262097A80F8241064304078992813D1AA
:1032A00091482D38807899280ED18F482D38C078D4
:1032B000992809D18C486C388E490A6802604A689E
:1032C0004260097A017228E087486C38A0F11B013E
:1032D0000A6802604A684260097A017286493F3092
:1032E000FDF746FC0421854880F8E41E00F6E46101
:1032F00000F6A56000E015E00AF09CF87A486C380A
:103300002AF000FC78496C39A1F109002DF01EFF6C
:103310007549753903A82DF019FF0CB1042C01D1A2
:10332000FEF7D6F8022C7CD17148007C00F0020038
:10333000002874D06C48753802F0CAFD28B96C4872
:10334000007C00F004000028F3D07FB9022D06D1E4
:103350006B49D1F8800103A919F050FE05E06849D6
:10336000D1F88001604919F049FE01271B2004F0C3
:10337000E9FB5F48007C00F0100018B35C4961482D
:10338000FCF77FFF5F48FCF75AFF064620223046D5
:10339000761C5C490A545A4AD2F86812594A901964
:1033A000FCF76FFF5248007C00F0010028B94E493D
:1033B0008739544819F022FE04E04B496C395148D2
:1033C00019F01CFE202240214E48FCF710FF49480E
:1033D0000168009141680191007A8DF80800444825
:1033E000B0F80D00ADF801004148FCF728FF804619
:1033F00042463F494348FCF7E8FE02208DF80000B2
:103400006946404810300CF0D3FC25203D494874F3
:1034100000208874344975393A4819F0EFFD31E0DD
:10342000FFE7032C2ED13248007C00F00100F8B1F8
:103430002F48007C00F00200D0B12B48873802F002
:1034400047FD20B92A48007C00F0040080B12649DD
:103450007539274819F0D2FD2548007C00F010008E
:1034600030B12749D1F868021F496C3919F0C6FDFF
:103470001D4891381F490A68C2614A680262097A88
:1034800080F8241000BF194890F8610F401C1749BC
:1034900081F8610F154890F8611F90F8EC0881429F
:1034A000FFF664AE012D10D10F4912310020FEF756
:1034B000FFF80D4812300168039141680491007AC9
:1034C0008DF81400022500274BE600BF00BF074817
:1034D00090F8410F20B9044912310020FEF7E8F8B6
:1034E00006B0BDE8F0810000BD480020AC290020F6
:1034F000E43B0020ECC0030819C10308AC390020EC
:103500000CAF0308FF59002010B58AB05E48407820
:1035100000F00400002854D15C48016C0191416C1A
:10352000029190F848008DF80C00594901A816F056
:10353000DFF9002442E054482F3890F8230001219D
:10354000A1400840C0B304EBC4005049AC3108446A
:103550000168079141680891007A8DF8240001A95B
:1035600007A816F0C5F94B4907A809F063FF002129
:1035700007A82AF02FFA07A90120FEF799F8424878
:10358000407800F0080028B99DF81C0080F0800009
:103590008DF81C00404890F84E0F28B19DF81C0093
:1035A00080F080008DF81C0004EBC401374AAC3277
:1035B000881807A9FDF7DCFA601CC4B2082CBADB36
:1035C0005FE0324813300168079141680891007A42
:1035D0008DF8240007A802F07BFC002851D00024BD
:1035E0004DE029482F3890F823000121A1400840E0
:1035F000002842D004EBC401244AAC32881802F0FF
:1036000067FCD0B304EBC401204AAC32881802F046
:103610005FFC90B304EBC4001C49AC310844016862
:10362000049141680591007A8DF81800194904A8A1
:1036300016F05EF907A904A809F0FCFE13490A3147
:1036400004A816F055F9134904A809F0F3FE002167
:1036500004A82AF0BFF99DF8100000F0FC008DF8D6
:10366000100004A90120FEF723F804EBC401074A67
:10367000AC32881804A9FDF77BFA601CC4B2082C90
:10368000AFDB0AB010BD00000D3B00202C4800202D
:1036900022C1030834C10308AC290020024691422C
:1036A00001DD00207047531A03EBD370C0F34700CD
:1036B000F8E700002DE9FC5F664F6748007858B9CD
:1036C0004FF0050800206449A1F805001820C871D2
:1036D0000846B0F808A004E05F48B0F805A04FF035
:1036E0000A084FF0000901E008F1010817F8080086
:1036F0000028F9D108F1010857484078C0000C2192
:1037000090FBF1F0554908805348C07888800C2020
:10371000C8801820088148810024002001904E486C
:10372000B0F80500002861D0002048804A48B0F871
:10373000055000264DE0A146785DA8B9474A518959
:10374000474A10192022FCF752FD4448408904449E
:1037500000222046641C42490A546D1C3F484088A0
:10376000401C3E49488034E0785D012801D1AD1C01
:103770002FE000260AE039484089B04205DD7A5D35
:103780002046641C36490A54761C6D1C3248008958
:10379000A84202DD785D0028EDD16D1CF0B20090EA
:1037A00005E020222046641C2D490A54761C2B4833
:1037B0004089B042F5DC2146641C294A00985054E7
:1037C00026484088401C254948800198401CC0B2CA
:1037D000019021480089A842ADDC204840881F495B
:1037E0004989491C48431D49C86003E000201B4922
:1037F0004880C86025464FF000091EE009EB080626
:10380000B85D98B9761C4FF0000B06E00022204608
:10381000641C13490A540BF1010BB85D584502DDD5
:10382000B4F5005FF2D309F1020906E0BA5D204663
:10383000641C0B490A5409F10109D14502DAB4F5B7
:10384000005FDBD30548C068611B08440349C860BA
:10385000BDE8FC9F00F0036400F00364AC88002026
:10386000BC88002010B5464890F8E10330B101282B
:1038700020D002283AD0032871D153E0404890F874
:10388000300F30B1012808D002280AD003280DD10A
:1038900008E03C48FEF74CFC0AE03A48FEF730FCF2
:1038A00006E005E03748FEF707FC01E0002010BD08
:1038B00000BF56E0324890F8300F30B1012805D0F3
:1038C00002280BD003280DD104E00DE02D48FEF7AF
:1038D000F3FB09E02B48FEF7EFFB00BF2948FEF79A
:1038E00003FC01E00020E2E700BF3AE0244890F842
:1038F000300F30B1012808D002280AD003280DD19A
:103900000BE02048FEF7FCFB00BF1E48FEF710FC52
:1039100006E01C48FEF7F4FB02E001E00020C6E7E9
:1039200000BF1EE0164890F8300F30B1012808D0D3
:10393000022807D003280DD108E01248FEF7E0FB6B
:103940000AE009E00F48FEF7B7FB05E00D48FEF777
:10395000CBFB01E00020AAE700BF02E0FFE7002068
:10396000A5E700BF084890F8C00E00F0F80106482F
:1039700080F8C01E0020024981F8300F012096E730
:10398000AC2900206C480020AC39002010B512484A
:1039900090F8300F30B1012808D002280AD003284F
:1039A0000DD108E00D48FEF7C3FB0AE00B48FEF717
:1039B000A7FB06E005E00948FEF77EFB01E00020DA
:1039C00010BD00BF0221064880F8C01E0020024939
:1039D00081F8300F0120F3E7AC2900206C4800206B
:1039E000AC39002070B50446257805F00F0020B1F1
:1039F000012806D002280CD107E02046FEF780FB04
:103A000000BF2046FEF77CFB00BF2046FEF778FB98
:103A100000BF00BF257070BD2DE9F04706460C467B
:103A200015461F46681E00F00F010120884000F077
:103A3000FF080120304908703048007848B92078E4
:103A400000EA080008B1012000E00020401C2B49DA
:103A500008702A480078022802DD012027490870F2
:103A600026480078022808D187F079002449C871D7
:103A7000207840EA0800207007E087F06E002049B7
:103A8000C871207820EA080020701D48C079792884
:103A900007D11C48D0F850151948401DFCF7F1FB20
:103AA00006E01848D0F854151548401DFCF7E9FB0E
:103AB000154890F8C61F00231A460D202BF032FE41
:103AC000104901EB86010868FF22002107F0D6FFAC
:103AD00005F0800068B10B4901EB86010868FCF72E
:103AE000AEFB814605F00F000123FF22494608F096
:103AF00049FBBDE8F0870000A6020020A4020020D8
:103B0000FF5900200CAF0308AC49002010B500F0AD
:103B100007F8024890F8330F10BD0000AC290020D0
:103B200010B513F0F5FD002855D011F0B1FC044696
:103B3000412C3DDD482C13DA2848A0F8794F09E0E4
:103B400011F0A6FC0446412C04DD482C02DA23487F
:103B5000A0F8794F2148B0F8790F4228F0D03AE028
:103B6000482C0AD11D4890F82C0F00B300201B49A7
:103B700081F82C0FA1F87D0F2DE0184890F82C0F3C
:103B8000A04228D0154880F82C4FA4F148001349D2
:103B9000A1F87D0F0846B0F87D1FB0F82D058142D1
:103BA00019DD00200D49A1F87D0F81F82C0F12E0DE
:103BB0000A4890F8C103A0420DD1084890F8490F77
:103BC000462808D0054890F85C0F20B91B2003490F
:103BD00081F8330F10BD00BFFCE70000AC290020C6
:103BE0002A4A92F8022402F00F0100294CD09728AB
:103BF0002ED008DC15280FD0812813D0822817D0AA
:103C0000852837D11EE09A2828D0CF282CD0E1284B
:103C10002CD0F8282ED12BE0012901D15D2000E025
:103C2000402030E0022901D17D2000E07E202AE002
:103C3000012901D17B2004E0062901D15D2000E0AB
:103C4000602020E0062901D17B2000E040201AE01E
:103C5000062901D1602000E07C2014E0022901D176
:103C60005D2000E05E200EE024200CE07E200AE0D3
:103C70005B2008E07F2805DDB02803DA00F07F0232
:103C8000034B985C00BF00BF70470000AC290020C8
:103C9000BACB030810B50446611CC8B20022114615
:103CA0002FF05AFF10BD0000F0B587B0044614B9DC
:103CB000474890F8334FFF2C0CD10020FEF764FAF0
:103CC000434890F8330FFF287FD10020404981F806
:103CD000330F7AE03F480078A0420DD1002C74D019
:103CE0003D480068002870D14FF4FA703A490860E6
:103CF0000120FEF749FA68E0022544B9354800780A
:103D0000002860D00021084633F0F2FC5BE0AA1CDA
:103D1000D1B2E8B233F0ECFC3049D1F8F002FCF754
:103D20008EFAC7B239461320FFF7B8FC401CC6B262
:103D3000EAB22A49D1F8F002314633F0C1FC002C36
:103D40001CDD642C1ADC04F1D301244A02EB81014E
:103D50000868FCF774FAC7B239461320FFF79EFCD7
:103D6000401CC6B2691CCAB204F1D3011B4B03EB61
:103D700081010868314633F0A3FC1DE0152101A83C
:103D8000FCF73CFA1549D1F8F002FCF758FA064660
:103D90001248D0F8F012324601A8FCF716FA214674
:103DA00001A831F0E6FB00208DF81700681CC2B2B4
:103DB000092101A833F084FC4FF4FA700649086029
:103DC0000120FEF7E1F90348047007B0F0BD0000E0
:103DD000AC29002060020020E40000200CAF0308A2
:103DE00070B5FE4890F84F5F90F8C103A84206D125
:103DF0004FF4FA61FA48A0F8821E002070BDF7481F
:103E0000B0F8790F00F47F40B0F5706F03D0F3483D
:103E100090F8330F08B10120F0E7F248007858B16C
:103E20000021EF4880F8C01E0822EF4900F6C1606B
:103E30002DF006F911F05EFA284618F053FB08B190
:103E40000120DBE7E748007848B1E8480078172808
:103E500005D1E7480078022801D1062412E0E348A2
:103E6000007817280AD1E2480078042806D10624F1
:103E7000DF480078401EDE49087003E028460EF057
:103E800007FF0446D54890F8230F38B10E2C05D013
:103E90000020D24981F84F0F0120AFE7CF4890F8BA
:103EA000480F18B9CD4890F83A0F58B1102C09DADC
:103EB000D048007B1F2805D00E20C84981F8330F59
:103EC00001209BE7C7480078A8B9C448B0F96F0F34
:103ED00000280CDAC149B1F96F0F002801DB014657
:103EE00000E0414209B2BD4AA2F86F1F03E0002082
:103EF000BA49A1F86F0FE01E0C2871D2DFE810F06C
:103F0000B4050C006A05FF0070006905B3055D0487
:103F10007000700070006004B048B0F8790F00F4D1
:103F20007060D0B1AD48B0F8790F00F47060B0F5B2
:103F3000706F0CD011220821042003F053FBAD4810
:103F4000807A401EA9490978081AA84908704720B4
:103F5000A249A1F8790F012050E7A048B0F8790FE5
:103F6000442804D09D48B0F8790F462839D19B48A1
:103F700090F8140F401C994981F8140F084690F8E6
:103F8000140F9C490979884203DD0120934981F887
:103F9000140F9448007878B19048B0F86F0F30B1A2
:103FA0008E48B0F96F0F9349097988420ADD0120E4
:103FB0008A4981F8330F82E3884890F8140F8749C3
:103FC000A1F86F0F854890F86F0F844981F8140F9E
:103FD000042008F0A5FD002003F074F901200DE78E
:103FE000FEE382480078002834DD8148007800280C
:103FF00030DD8148007800282CDD8048007818B139
:1040000001207849087004E00120744981F8330FD9
:10401000D1E77A480078401C784908700120764939
:10402000087008F073F908B90020E7E66B4890F8CB
:10403000330F70B9724B1A79724B93F8C61F704BDD
:10404000987803F0CFFA6E488178FF226E4807F027
:1040500015FDB0E76148B0F96F0F66281ADD5F48BB
:10406000B0F96F0F6C2815DA5C48B0F86F0F6B2849
:1040700009D15A48B0F8790F472804D00120574990
:1040800081F8330F05E05549B1F86F1F88B201F090
:10409000D9FF90E75148B0F86F0F40B14F4890F802
:1040A0006F0F401E514908700020534908704F4857
:1040B000007810B15048007888B94E4800794B49D3
:1040C0000978884202DD4948007818B9012047493B
:1040D000087004E045480078401C444908700E20F0
:1040E0004A490870042008F01BFD0020424908706E
:1040F000474908803E490870404908705BE73748E7
:10410000D0F8710F20F480303449C1F8710F08469F
:10411000B0F8790F442804D00846B0F8790F462843
:1041200036D130480078A8B12C48B0F86F0F30B1C4
:104130002A48B0F96F0F2F490979884204DD012020
:10414000264981F8330F36E7244890F86F0F23494A
:1041500081F8140F2148B0F8790F442808D11F497D
:1041600091F8141F01F2372188B223F071F807E0AB
:104170001A4991F8141F01F50F7188B223F0CCF899
:104180000120164981F8140FFF2008F0C9FC12E73E
:104190001248B0F8790F47287ED11648007BE0B965
:1041A0001448807A134908800846C07A08710020B4
:1041B00048710E48C1F806000120087315481649D9
:1041C000086003F034FA312008F0AAFC0E200F49F1
:1041D0000870002008490870EDE61FE0AC290020B7
:1041E000AC390020A5020020E3590020A3020020E2
:1041F000A10200207C590020A2020020A40200207D
:104200009A240020AC490020FF590020A60200207B
:104210009A02002021CB000854020020FE48007BB7
:104220001F2815D0FD48007890B9FB48D0F806004B
:104230000178F948807A401E0844F9490870002046
:10424000F8490880F8490870F8490870F84908707A
:10425000F348007800281FD0F348007801287BD16C
:10426000F3480078002877D0EC48007810B901F0C6
:10427000CDFDA0E60021EF4880F8C01EE848007898
:104280001F286ED1EC4890F8810888B30020EA49D5
:10429000A1F8950F084600E0BCE190F88108E449D8
:1042A0000978B1EB400F58DC00221146E3A007F07B
:1042B000E5FBE549DE4A1278891A481E01220721EA
:1042C00007F0DCFBE14901200FF04EFDDA49A1F8CF
:1042D000950F0846B0F8950F98B90021084602F0EE
:1042E00045F930B9D44890F8CF03D949087062E64F
:1042F00037E0D64900200FF037FDCF49A1F8950FE0
:104300001CE0CD48B0F8790F442817D0CA48B0F85F
:104310007C0800B2C849A1F86F0F0021012002F00B
:1043200025F9C548B0F87C08C349B1F96F1F884228
:1043300004DAC14890F8CF03C5490870BE48B0F808
:10434000950F00B2BC49A1F86F0F002003F020F8D0
:10435000012003F01DF804E01FE00020B649A1F899
:104360006F0FB548B0F86F0F38B1B348B0F86F0FA2
:10437000401E00B2AB49088004E00120AE4981F83C
:10438000330FC1E30020A9490870A9490870AA4960
:1043900081F8330F0120A14908700025A04800785A
:1043A000482874D010DC412830D006DC192838D0D9
:1043B000252820D03D281DD1B7E0422868D04628C6
:1043C00068D04728F7D173E04938092812D2DFE8CE
:1043D00000F08BC00599B41111BA9D009D49D1F828
:1043E0002C01002131F044F918B100219248A0F8C5
:1043F0007C180325F9E0002015F03CF9052008F0B1
:10440000EBFD002002F05EFF0120F7E49149D1F8B6
:10441000B008012131F02CF908B102F041FE03256A
:10442000E3E001238CA219461B2014F081F8044616
:10443000012C06D1804890F805080A2804DD6C2478
:1044400002E0022C00D16B246C2C01D06B2C1CD10F
:10445000804901EB84010868012131F009F9A0B11C
:104460006C2C05D1802280498048FBF7AEFE04E029
:1044700080227F497D48FBF7A8FE6F48D0F8710F76
:1044800020F400706C49C1F8710F0325ADE01DE008
:104490004FE0FFE76F49D1F818017449EA312BF07A
:1044A00003FB18B92420644981F8330F03259CE0ED
:1044B0006849D1F81C016D49DC312BF0F5FA18B9C7
:1044C00024205D4981F8330F03258EE06149D1F83E
:1044D00020016649E3312BF0E7FA18B92420564948
:1044E00081F8330F032580E05A49D1F824015F4950
:1044F000F1312BF0D9FA18B924204F4981F8330F44
:10450000032572E019F070FA03256EE01CF04AFBF7
:1045100044201DF06DFA46201DF06AFA1AF0BAF830
:10452000062027F067F803255FE019F0A5FE0325B4
:104530005BE009F0D7FE032557E04FF4805011F0FF
:1045400013FA032551E04FF4005011F00DFA032542
:104550004BE000BF012347A200214A2013F0E8FFEF
:104560000446002C3BDD0A2C39DC04F1510084B2F6
:10457000A4F152000A2831D2DFE800F005090E123A
:10458000161A1E22262B022011F0EEF926E04FF417
:10459000804011F0E9F921E0012011F0E5F91DE07A
:1045A000082011F0E1F919E0042011F0DDF915E01F
:1045B000102011F0D9F911E0202011F0D5F90DE00B
:1045C000402011F0D1F909E04FF4806011F0CCF9EE
:1045D00004E04FF4006011F0C7F900BF00BF4FF6D0
:1045E000FE708442B6D1032500BF00BF95B1032DF4
:1045F0004BD10948807A401E09490978081A0849B0
:1046000008700020054908700649088006490870AE
:10461000064935E044E000007C590020A202002059
:10462000A30200209A020020A1020020A402002080
:10463000A5020020AC390020AC290020504C5520A8
:10464000434F444500000000E55900206D4800201C
:104650009C0200200CAF03084B4559424F41524485
:1046600020545950450000004CAC0308CD2D0020CB
:10467000999C030853454C454354204954454D00EB
:10468000087002F01FFE012007E40020FC4981F8B9
:10469000230F084690F8CF03FA490870012010E470
:1046A000F948FA490860FA48007850BBF9480078A0
:1046B00028B1F34890F8710F00F0080000B123E230
:1046C000F5480078401CF44908700020F349087050
:1046D000F148007802281FDD01202AF099FAF048FD
:1046E00090F8C60F072806D101202AF09FFA06216C
:1046F000002010F0FDFEEA4890F8C60FE949C870A6
:104700000AE0E648007810B9E248007820B90120B4
:10471000DB4981F8330FF7E10120E349087007F026
:10472000F5FD08B9002017E4D54890F8330FB0BB69
:10473000D948007800283FDDD648007817283BD0BC
:10474000D548007801280BDDD64B1A79D9789878AE
:1047500002F048FFD348C2788178D44807F08EF938
:10476000CB480078D8B1CC480078401CCA490870C2
:1047700001202AF04DFACA4890F8C60F072806D142
:1047800001202AF053FA0621002010F0B1FE00208B
:1047900002F098FD07F0BAFD10B900201FE40BE00D
:1047A000B748B0F8710F00F4807028B9BD4881781F
:1047B000FF22BE4807F062F9A6E126F0F1FBA3E173
:1047C000AF48D0F8710FBA490840AD49C1F8710F30
:1047D0000846B0F8790F4FF24501884221D100E038
:1047E0007BE14520A649A1F8790F0020A94908706E
:1047F000B04890F84F0100F00801AE4880F84F1122
:10480000002002F05FFD32F02FFE082002F0C0FD14
:104810009B49D1F8A50F0822002107F02FF9452068
:10482000F3E59748B0F8790F00F4706090B1432039
:104830009349A1F8790F002002F044FD082002F00E
:10484000A7FD8F49D1F8A50F0822002107F016F91E
:104850004320DAE598488D4908608F48007868BBA6
:104860009148007850BB8648B0F8790F442804D0AE
:104870008348B0F8790F462809D10020854908708F
:10488000FF2008F04DF90E208C4908703CE108F03B
:1048900059FB00207A4981F8230F4720A1F8790FAE
:1048A00087480069C1F8A50FD1F8A50F082200219B
:1048B00007F0E4F804208149087025E17548007884
:1048C000C8B375480078012836DD7248007833286F
:1048D00032DA7048007838282EDD6E480078C0281B
:1048E0002ADA6C480078C32826DD6A480078232835
:1048F00022DA6848007824281EDD664800781528EA
:104900001AD064480078162816D062480078132818
:1049100012D000206B4908805F4908705F49087019
:104920005B490870564890F8C703554981F84F0F06
:10493000FFF756FA4BE0FFE7002033F01FF962481B
:10494000007BD0B153480078B8B9604800885E4910
:1049500008805E4880780871002048714D48C1F891
:1049600006000020087359480079887257488079FA
:10497000C87201204749087014E0464800781F2893
:1049800003D044480078202804D14748007808B173
:104990002AF006F84C48807A401E3E490978081AE9
:1049A0003C4908700020364981F8330F38490870B7
:1049B000384909783031C8B208F0B2F800203A49D5
:1049C0000870404908803449087034490870012053
:1049D0001BE500BF2A48D0F8710F00F48030E0BB1F
:1049E0002748B0F8790F47283CD12F480078A0B36A
:1049F00037480078022835DD35480078401E2649C2
:104A00000870274890F8C60F002810DD244991F857
:104A1000C60F02F0BDFC224890F8C60F401EC1B27E
:104A20001F4880F8C61F90F8C60F1E49C8701C4961
:104A300091F8C60F02F0ACFC002015490870174928
:104A4000087007F063FC58B10D4890F8330F38B97F
:104A500014488178FF22154800E003E007F00EF8C3
:104A60000120D2E400BF00BF0548D0F8710F00F468
:104A7000803078B3E0B20549096888470120C4E472
:104A8000AC2900209C0200201DCB0008540200200D
:104A9000A5020020A3020020A1020020A402002001
:104AA000AC4900209A240020A2020020FF590020D7
:104AB000C7FFFEFF5539002021CB0008A6020020C9
:104AC0000CAF03089A0200207C59002008C4030898
:104AD000A0020020FFE7002097E41348B0F8820E00
:104AE00040F6B731884208DD0F48B0F8820E40F634
:104AF0001C41884201DA002087E40C48407808B164
:104B0000012082E4002080E400BF094800780228E8
:104B100008D0084890F8710F00F0100010B900207C
:104B200002F0D0FB012070E4AC3900202E480020B8
:104B3000A1020020AC29002010B52948B0F8820E4F
:104B4000B0F57A7F49DA2648B0F8820E642190FBEE
:104B5000F1F201FB120000283FD12248B0F86F0F9C
:104B600020B12048B0F96F0F632804DD01201D49F2
:104B700081F8330F10BD1A48B0F8820EB0F5487FA7
:104B80002BD01748B0F8820E1649B1F86F1F0844B1
:104B900081B21348A0F8821E124890F8520FC8B193
:104BA0000F4890F8E40E00F003000E4981F8300F32
:104BB00001F5F45001464A6E02648A6E426491F82F
:104BC0006C1080F848100020064981F8520F10F050
:104BD00091FB02E00020044908700020CAE70000B1
:104BE000AC390020AC290020A502002010B57A487D
:104BF00090F8F80300F0080000287DD0774800788E
:104C00000D2803D0754800780C2875D173480078BA
:104C10000C2803D13020724981F84200704890F886
:104C20004310303990F8420001EB0010C4B2262C3A
:104C300014D008DC022C0FD0202C0ED0212C16D042
:104C4000252C36D128E0272C27D0282C07D0292C3A
:104C500024D0372C2DD10FE000BF00BF00BF5E482D
:104C600090F8FF0300F0800000B923E000BF0320AC
:104C7000594981F8350F1DE0574890F8FF0300F0BF
:104C8000100040B1564890F84400392803D1022062
:104C9000514981F8350F0DE000BF00BF4E4890F834
:104CA000FF0300F0400018B104204B4981F8350F94
:104CB00000E000BF00BF484890F8350F01281BDD19
:104CC000484849490A6802644A684264097A80F897
:104CD0004810434890F84D10303990F84C0001EBE3
:104CE0000010C1B23F48403041703D4890F84B1031
:104CF000303990F84A0000E06CE001EB0010C1B2DE
:104D0000384840308170364890F849003038C1B298
:104D100034484030C170304890F8350F042813D122
:104D2000304801460A6C42664A6C826691F8481027
:104D300080F86C100321A0F5686080F8E41E012063
:104D4000254981F8520F11E0234890F8430F68B9C4
:104D500024485B3023490A6C02604A6C426091F837
:104D60004810017201201C4981F8430F1A4890F83D
:104D7000350F022803D107201849087011E02020C0
:104D8000174981F8430081F84200134890F8350F25
:104D9000042803D00020104981F8520F05200F4944
:104DA000087000240DE0C4F148000D49085CC4F10E
:104DB0004E010B4A50542020C4F148015054601C4D
:104DC000C4B2072CEFDB082205494E3105484130BB
:104DD0002CF036F910BD0000AC290020A5020020FF
:104DE000955900202C480020ECC0030870B512F043
:104DF0008FFC08B9002070BD10F04AFB04466E49D4
:104E000081F84F0F01F5005090F8C40F00F020001A
:104E1000002876D020460DF03BFF0C2829D005DC79
:104E200048B104281BD006286CD11CE00E286BD09A
:104E30000F28F9D114E06148007878B1202060494A
:104E40008870487008700020C870082203215C48F0
:104E500006F014FE002059490870CCE700BF00BFDF
:104E600004F58070C7E7032002F072F804F5807043
:104E7000C1E70020534908705348B0F8C40F20F030
:104E800040015148A0F8C41F50480078401C4F49C9
:104E900008700846007840B101280CD0022810D0D4
:104EA000032814D00020087000BF082200216120D0
:104EB00005F0CAFB22E008220021412005F0C4FBD6
:104EC0001CE0082200212A2005F0BEFB16E020206D
:104ED0003B498870487008700020C8700822032180
:104EE000374806F0CBFD08220021402005F0ACFB3E
:104EF0000020324908703249087000BF00BF00200E
:104F000079E73DE02DE0FFE72C48007820B92A48FA
:104F100090F8CF032E4908702848007870B12020FF
:104F200027498870487008700020C8700822032143
:104F3000234806F0A3FD0020204908702248B0F85D
:104F4000C40F20F020012048A0F8C41F15222149D9
:104F500000F6AF70FBF739F9082032F085FE00202B
:104F600049E71848007858B918480078032803D151
:104F7000204612F087F93EE720460EF0ADF93AE7F9
:104F8000402C16DA144800EB44000588302D01DB74
:104F9000392D01DD2E2D01D128462CE72F2D08D1EA
:104FA000054890F8710F00F0100010B943F230007E
:104FB00021E744F480701EE7AC290020D4010020D2
:104FC000D0010020D8010020AC490020D5010020EC
:104FD0009C02002052250020CD2D002010B508484D
:104FE000007808490978884201D1002010BD32F0CC
:104FF0002BFE12F060FE044802490978405CF5E798
:1050000065000020660000204405002010B52F48F0
:105010008168A0F67D70D0F87D0F81420AD32B48BD
:105020008168A0F67D70D0F87D0F081A274949697C
:105030000C1A05E02648D0F87D0F24498968441AE7
:10504000B4F5806F2AD22148007E022826DA02F0C9
:10505000FFFA2049D1F840030822092106F00EFD8D
:105060000320FDF791F808E01B4991F8F513491E5C
:10507000C8B2FEF70FFE00B10AE012F049FB0028AB
:10508000F2D010F005FA144991F8C1138842EBD11F
:1050900000BF0E48007E401C0C4908760B48816812
:1050A0000B48D0F87D0F814209D308488168084831
:1050B000D0F87D0F081A05494969081A10BD04483F
:1050C000D0F87D0F01498968401AF7E72949002087
:1050D000AC3900200CAF0308AC290020FEB5064611
:1050E0000C460CB90020FEBD1848016800914168CB
:1050F0000191007A8DF808000A2194FBF1F201FB7E
:10510000124000EBD071C1F347050A2094FBF0F088
:10511000C1B20DF101004155204604EBD071491098
:10512000A4EB410139B10DF10100405D0007010E12
:105130000DF1010041556946304603F0FBF90128A5
:1051400001DA0020CFE70120CDE70000ECC0030822
:1051500070B58AB00446AD4890F8F80300F004003A
:10516000002879D0A94890F8850830B9A74890F868
:10517000710F00F006000028F3D00025A34890F836
:10518000710F00F00200002867D0A1480168079164
:1051900041680891007A8DF824009C4890F8842892
:1051A0009C490DF11D00FBF710F807A800F090FED8
:1051B00008B90AB070BD012C13D1974894490A6808
:1051C00002604A684260097A0172904890F8276F3D
:1051D00003208E4981F8270F2BF012FB8B4880F8B3
:1051E000276F8D480168049141680591007A8DF818
:1051F000180000208DF81000854801680191416871
:105200000291007A8DF80C0007E007A904A82BF0A2
:105210009DFF824901A8FBF7ABFC07A904A803F096
:1052200089F90028F1DA7E4890F8C90E8DF804005B
:1052300079491B317848FBF79BFC794890F8C96E97
:10524000002180F8C91E72480168049141680591E7
:10525000007A8DF8180009E0D6E03FE007A96E4813
:105260002BF074FF6D4904A8FBF782FC07A96A487C
:1052700003F060F90028F1DA8DF8106001A904A8A4
:105280002BF064FF002104A828F0A4FB04A800F080
:105290001FFE00285AD0604824385D490A68026021
:1052A0004A684260097A0172584890F8842859493E
:1052B0000F3901F6B340FAF788FF04A9564824389D
:1052C00014F016FB564890F8A50E80F08001544863
:1052D00080F8A51E022C39D0052537E04B4890F800
:1052E000710F00F0040088B34B48243848490A681D
:1052F00002604A684260097A0172444890F8842842
:1053000044490F3901F6B340FAF75FFF04214448DE
:1053100080F8A51E00F6DB6100F6A56014F0E8FA3F
:105320003D491B31A1F13F0014F0E2FA00213A4857
:10533000243828F04FFB3A4890F8A50E80F0800101
:10534000374880F8A51E022C00D01125002D5BD017
:1053500031492439A1F1B20017F050FE00202B4949
:1053600081F8310F10E00DF021FC26F0D7FC294820
:10537000A1384078A84200D10DE0244890F8310FC0
:10538000401C224981F8310F204890F8311F90F8D5
:1053900062078142E7DB00BF1C48D0F8710F40F084
:1053A00004001A49C1F8710F1B483F380168079182
:1053B00041680891007A8DF8240017483F3800F1C1
:1053C0001B010A6802604A684260097A01720F484C
:1053D00090F884280F490F3901F6CE40FAF7F5FE10
:1053E000FBF74CFD0C483F38079901600899416074
:1053F0009DF8241001721CB100F11B01FBF7B8FBF2
:105400000120024981F8690F00BFD2E6AC290020D3
:10541000ECC00308AE3B002075480020F5C003082F
:10542000AC3900202DE9F0410026FE4890F84F5F8E
:1054300090F84F1F90F8D003814204D112F062F926
:105440000120BDE8F081F74890F8330F08B1002043
:10545000F7E728460DF01CFC0446102C01DB002069
:10546000EFE7022C03D1F0480078002802DD00208D
:10547000EE490870EB4890F8230F40B30E2C1ED174
:1054800031F0F2FF0020E74981F8230F0021E848BE
:10549000A0F8821E002001F015FF0020E5490870E9
:1054A000E548807A401EE5490978081AE349087002
:1054B00009783031C8B207F033FB0120C1E7062C70
:1054C00005D00021DA48A0F8821E0120B9E70B2C94
:1054D00030D006DC012C7DD0022C7CD0062C7BD178
:1054E000F8E00C2C79D00D2C78D00E2CF7D1CD48CB
:1054F000B0F8790F00F47060D0B1CA48B0F8790FF5
:1055000000F47060B0F5706F12D0112208210420F1
:1055100002F068F8C848807A401EC8490978081A1D
:10552000C64908704720BF49A1F8790F012088E7D4
:10553000002086E7BB48B0F8790F432804D0B9486B
:10554000B0F8790F45284FD1B64890F8250F80F074
:105550008000B44981F8250F20221521B848FAF7B8
:1055600046FEB849D1F88000FAF769FE0746B5480B
:10557000D0F880103A46B248FAF727FEA94890F8CA
:10558000250F00F0800098B1A64890F8200F411C2C
:10559000AB48C01D2FF0D2FF2D20A9490872A148A9
:1055A00090F8200F4100A64809302FF0E2FF0EE0EE
:1055B0000121A348C01D2FF0C1FF2D20A049087272
:1055C000984890F8201F9E4809302FF0D2FF0822FB
:1055D000092104E048E02CE09AE307E08CE19848D8
:1055E00006F04CFA01202CE700202AE78D48B0F89D
:1055F000790F472806D08B48B0F8790F4FF2450154
:10560000884214D1874890F8710F00F0100070B1F3
:105610008D4890F8C40F00F0200018B1032001F06D
:1056200097FC02E0022001F093FC012009E7002032
:1056300007E77C48B0F8790F432813D1794890F8F0
:10564000F603401C7949097808437849087001201D
:1056500001F080F97548007880F080007349087087
:105660000120EEE60020ECE66E4890F8FA0300F028
:10567000200068B36C48007850BB6A48B0F8710FDE
:1056800000F4006088B901F0C1FF6E49D1F8E80765
:105690000822042106F0F2F96248D0F8710F40F4B4
:1056A00000606049C1F8710F10E001F0AFFF65497B
:1056B000D1F8EC070822042106F0E0F95948D0F8A7
:1056C000710F20F400605749C1F8710F0120B8E64E
:1056D0000020B6E65948007858B15248B0F8790F22
:1056E00000F4706028B94F4890F8230F08B90020E3
:1056F000A7E64C48B0F8790F47287CD14948B0F963
:105700006F0FA0F29310F0B1932802D0942873D1B8
:105710000CE0444890F8F503401E4C49088026F000
:1057200087FF002001F0CEFD01208AE63D4890F879
:10573000F503401E4549088026F07AFF002001F05D
:10574000C1FD01207DE631F08FFE0022114640A010
:1057500006F094F903223C49833939480FF01CFFC5
:1057600000203749887100220521354806F086F966
:1057700000220C2138A006F081F9032232497F393A
:105780002F480FF009FF00202D49887100221121B8
:105790002B4806F073F90122002131A006F06EF9C2
:1057A00003222949773926480FF0F6FE00202449C4
:1057B000887101220521224806F060F901220C219E
:1057C00029A006F05BF903221F4973391C480FF02A
:1057D000E3FE00201A49887101221121184806F0C1
:1057E0004DF90222002122A006F048F903221649B1
:1057F0007B39134801E07DE073E00FF0CDFE00201F
:105800000F498871022205210D4806F037F902225E
:105810000C2119A006F032F903220B496F39084810
:105820002EE00000AC290020A5020020A8020020E4
:10583000AC390020A10200207C590020A3020020E6
:105840003F5A00200CAF0308AC490020980200200A
:10585000486561643D000000526561643D000000E0
:1058600046726F6D3D000000456E64203D000000F3
:105870004E6578743D0000004D4158203D00000009
:105880000FF08AFE0020FE49887102221121FC4897
:1058900006F0F4F8002415E0E1B200200FF028FE35
:1058A000F7480FF03BF8F74991F85B1F01F004014E
:1058B00009B1062100E004210846F14914F0CAFDAF
:1058C000601C04B2032CE7DB002001F0FBFCED4878
:1058D000D0F8710F40F48020EA49C1F8710F01201F
:1058E000AFE5E948007818B12020E64981F8330F88
:1058F0000020A6E50020A4E5E24890F8250F20F05E
:105900008000E04981F8250F002081F8230FDE4850
:10591000007838B10822DD49DD482BF091FB0FF00B
:10592000E9FC03E00020D749A1F86F0FD54890F8B3
:10593000480F78B1D348B0F86F0F01280AD0D1488A
:10594000B0F86F0F052805D00E20CE4981F8330F2F
:10595000002076E5CB48B0F8790F452809D1C94831
:1059600090F83A0F28B12F20C64981F8330F002054
:1059700067E5C448B0F8790F47280BD1C148B0F8A3
:105980006F0F032806D0BF48B0F8710F00F4806095
:1059900000B101260020BF490870BF48BF49086018
:1059A000B848B0F96F0F06286FD2DFE800F0031295
:1059B0007597B93AB4480078002805DD0120B1494F
:1059C00081F8330F00203CE52BF0DAFC00250120A4
:1059D00037E5012029F078F831F046FD43254320D2
:1059E000A849A1F8790F01244E20AD490870A548B7
:1059F00090F8EA0300F0010018B10020A149A1F8D5
:105A00007B0F0020A7490870A7490870A749C86004
:105A10009C48D0F8710F20F480309A49C1F8710F7A
:105A2000EAE0012029F050F89648B0F8790F4528AF
:105A300006D09F49D1F824019E4900F05FFA28B3AF
:105A400031F012FD452500209849C86045208D4958
:105A5000A1F8790F0524084690F8EA0300F0010048
:105A600010B10020A1F87B0F4E208D490870002056
:105A70008C4908708C4908708248D0F8710F20F466
:105A800080308049C1F8710FB6E0ACE024207D4938
:105A900081F8330F0020D4E4012029F015F879486B
:105AA000B0F8790F442807D08149D1F81C01814909
:105AB000153900F023FA58B1442544207149A1F862
:105AC000790F07F003FB02240E207549087093E05C
:105AD00024206C4981F8330F0020B2E4012028F023
